{
  "_format": "hh-sol-artifact-1",
  "contractName": "Land",
  "sourceName": "contracts/Land.sol",
  "abi": [
    {
      "inputs": [
        {
          "internalType": "string",
          "name": "_name",
          "type": "string"
        },
        {
          "internalType": "string",
          "name": "_symbol",
          "type": "string"
        },
        {
          "internalType": "uint256",
          "name": "_cost",
          "type": "uint256"
        }
      ],
      "stateMutability": "nonpayable",
      "type": "constructor"
    },
    {
      "anonymous": false,
      "inputs": [
        {
          "indexed": true,
          "internalType": "address",
          "name": "owner",
          "type": "address"
        },
        {
          "indexed": true,
          "internalType": "address",
          "name": "approved",
          "type": "address"
        },
        {
          "indexed": true,
          "internalType": "uint256",
          "name": "tokenId",
          "type": "uint256"
        }
      ],
      "name": "Approval",
      "type": "event"
    },
    {
      "anonymous": false,
      "inputs": [
        {
          "indexed": true,
          "internalType": "address",
          "name": "owner",
          "type": "address"
        },
        {
          "indexed": true,
          "internalType": "address",
          "name": "operator",
          "type": "address"
        },
        {
          "indexed": false,
          "internalType": "bool",
          "name": "approved",
          "type": "bool"
        }
      ],
      "name": "ApprovalForAll",
      "type": "event"
    },
    {
      "anonymous": false,
      "inputs": [
        {
          "indexed": true,
          "internalType": "address",
          "name": "from",
          "type": "address"
        },
        {
          "indexed": true,
          "internalType": "address",
          "name": "to",
          "type": "address"
        },
        {
          "indexed": true,
          "internalType": "uint256",
          "name": "tokenId",
          "type": "uint256"
        }
      ],
      "name": "Transfer",
      "type": "event"
    },
    {
      "inputs": [
        {
          "internalType": "address",
          "name": "to",
          "type": "address"
        },
        {
          "internalType": "uint256",
          "name": "tokenId",
          "type": "uint256"
        }
      ],
      "name": "approve",
      "outputs": [],
      "stateMutability": "nonpayable",
      "type": "function"
    },
    {
      "inputs": [
        {
          "internalType": "address",
          "name": "owner",
          "type": "address"
        }
      ],
      "name": "balanceOf",
      "outputs": [
        {
          "internalType": "uint256",
          "name": "",
          "type": "uint256"
        }
      ],
      "stateMutability": "view",
      "type": "function"
    },
    {
      "inputs": [
        {
          "internalType": "uint256",
          "name": "",
          "type": "uint256"
        }
      ],
      "name": "buildings",
      "outputs": [
        {
          "internalType": "string",
          "name": "name",
          "type": "string"
        },
        {
          "internalType": "address",
          "name": "owner",
          "type": "address"
        },
        {
          "internalType": "int256",
          "name": "positionX",
          "type": "int256"
        },
        {
          "internalType": "int256",
          "name": "positionY",
          "type": "int256"
        },
        {
          "internalType": "int256",
          "name": "positionZ",
          "type": "int256"
        },
        {
          "internalType": "int256",
          "name": "sizeX",
          "type": "int256"
        },
        {
          "internalType": "int256",
          "name": "sizeY",
          "type": "int256"
        },
        {
          "internalType": "int256",
          "name": "sizeZ",
          "type": "int256"
        }
      ],
      "stateMutability": "view",
      "type": "function"
    },
    {
      "inputs": [],
      "name": "cost",
      "outputs": [
        {
          "internalType": "uint256",
          "name": "",
          "type": "uint256"
        }
      ],
      "stateMutability": "view",
      "type": "function"
    },
    {
      "inputs": [
        {
          "internalType": "uint256",
          "name": "tokenId",
          "type": "uint256"
        }
      ],
      "name": "getApproved",
      "outputs": [
        {
          "internalType": "address",
          "name": "",
          "type": "address"
        }
      ],
      "stateMutability": "view",
      "type": "function"
    },
    {
      "inputs": [
        {
          "internalType": "uint256",
          "name": "_id",
          "type": "uint256"
        }
      ],
      "name": "getBuilding",
      "outputs": [
        {
          "components": [
            {
              "internalType": "string",
              "name": "name",
              "type": "string"
            },
            {
              "internalType": "address",
              "name": "owner",
              "type": "address"
            },
            {
              "internalType": "int256",
              "name": "positionX",
              "type": "int256"
            },
            {
              "internalType": "int256",
              "name": "positionY",
              "type": "int256"
            },
            {
              "internalType": "int256",
              "name": "positionZ",
              "type": "int256"
            },
            {
              "internalType": "int256",
              "name": "sizeX",
              "type": "int256"
            },
            {
              "internalType": "int256",
              "name": "sizeY",
              "type": "int256"
            },
            {
              "internalType": "int256",
              "name": "sizeZ",
              "type": "int256"
            }
          ],
          "internalType": "struct Land.Building",
          "name": "",
          "type": "tuple"
        }
      ],
      "stateMutability": "view",
      "type": "function"
    },
    {
      "inputs": [],
      "name": "getBuildings",
      "outputs": [
        {
          "components": [
            {
              "internalType": "string",
              "name": "name",
              "type": "string"
            },
            {
              "internalType": "address",
              "name": "owner",
              "type": "address"
            },
            {
              "internalType": "int256",
              "name": "positionX",
              "type": "int256"
            },
            {
              "internalType": "int256",
              "name": "positionY",
              "type": "int256"
            },
            {
              "internalType": "int256",
              "name": "positionZ",
              "type": "int256"
            },
            {
              "internalType": "int256",
              "name": "sizeX",
              "type": "int256"
            },
            {
              "internalType": "int256",
              "name": "sizeY",
              "type": "int256"
            },
            {
              "internalType": "int256",
              "name": "sizeZ",
              "type": "int256"
            }
          ],
          "internalType": "struct Land.Building[]",
          "name": "",
          "type": "tuple[]"
        }
      ],
      "stateMutability": "view",
      "type": "function"
    },
    {
      "inputs": [
        {
          "internalType": "address",
          "name": "owner",
          "type": "address"
        },
        {
          "internalType": "address",
          "name": "operator",
          "type": "address"
        }
      ],
      "name": "isApprovedForAll",
      "outputs": [
        {
          "internalType": "bool",
          "name": "",
          "type": "bool"
        }
      ],
      "stateMutability": "view",
      "type": "function"
    },
    {
      "inputs": [],
      "name": "maxSupply",
      "outputs": [
        {
          "internalType": "uint8",
          "name": "",
          "type": "uint8"
        }
      ],
      "stateMutability": "view",
      "type": "function"
    },
    {
      "inputs": [
        {
          "internalType": "uint256",
          "name": "_id",
          "type": "uint256"
        }
      ],
      "name": "mint",
      "outputs": [],
      "stateMutability": "payable",
      "type": "function"
    },
    {
      "inputs": [],
      "name": "name",
      "outputs": [
        {
          "internalType": "string",
          "name": "",
          "type": "string"
        }
      ],
      "stateMutability": "view",
      "type": "function"
    },
    {
      "inputs": [
        {
          "internalType": "uint256",
          "name": "tokenId",
          "type": "uint256"
        }
      ],
      "name": "ownerOf",
      "outputs": [
        {
          "internalType": "address",
          "name": "",
          "type": "address"
        }
      ],
      "stateMutability": "view",
      "type": "function"
    },
    {
      "inputs": [
        {
          "internalType": "address",
          "name": "from",
          "type": "address"
        },
        {
          "internalType": "address",
          "name": "to",
          "type": "address"
        },
        {
          "internalType": "uint256",
          "name": "tokenId",
          "type": "uint256"
        }
      ],
      "name": "safeTransferFrom",
      "outputs": [],
      "stateMutability": "nonpayable",
      "type": "function"
    },
    {
      "inputs": [
        {
          "internalType": "address",
          "name": "_from",
          "type": "address"
        },
        {
          "internalType": "address",
          "name": "_to",
          "type": "address"
        },
        {
          "internalType": "uint256",
          "name": "_tokenId",
          "type": "uint256"
        },
        {
          "internalType": "bytes",
          "name": "_data",
          "type": "bytes"
        }
      ],
      "name": "safeTransferFrom",
      "outputs": [],
      "stateMutability": "nonpayable",
      "type": "function"
    },
    {
      "inputs": [
        {
          "internalType": "address",
          "name": "operator",
          "type": "address"
        },
        {
          "internalType": "bool",
          "name": "approved",
          "type": "bool"
        }
      ],
      "name": "setApprovalForAll",
      "outputs": [],
      "stateMutability": "nonpayable",
      "type": "function"
    },
    {
      "inputs": [
        {
          "internalType": "bytes4",
          "name": "interfaceId",
          "type": "bytes4"
        }
      ],
      "name": "supportsInterface",
      "outputs": [
        {
          "internalType": "bool",
          "name": "",
          "type": "bool"
        }
      ],
      "stateMutability": "view",
      "type": "function"
    },
    {
      "inputs": [],
      "name": "symbol",
      "outputs": [
        {
          "internalType": "string",
          "name": "",
          "type": "string"
        }
      ],
      "stateMutability": "view",
      "type": "function"
    },
    {
      "inputs": [
        {
          "internalType": "uint256",
          "name": "tokenId",
          "type": "uint256"
        }
      ],
      "name": "tokenURI",
      "outputs": [
        {
          "internalType": "string",
          "name": "",
          "type": "string"
        }
      ],
      "stateMutability": "view",
      "type": "function"
    },
    {
      "inputs": [],
      "name": "totalSupply",
      "outputs": [
        {
          "internalType": "uint8",
          "name": "",
          "type": "uint8"
        }
      ],
      "stateMutability": "view",
      "type": "function"
    },
    {
      "inputs": [
        {
          "internalType": "address",
          "name": "_from",
          "type": "address"
        },
        {
          "internalType": "address",
          "name": "_to",
          "type": "address"
        },
        {
          "internalType": "uint256",
          "name": "_tokenId",
          "type": "uint256"
        }
      ],
      "name": "transferFrom",
      "outputs": [],
      "stateMutability": "nonpayable",
      "type": "function"
    }
  ],
  "bytecode": "0x60806040526005600760006101000a81548160ff021916908360ff1602179055506000600760016101000a81548160ff021916908360ff1602179055503480156200004957600080fd5b5060405162003ed038038062003ed083398181016040528101906200006f919062000a42565b8282816000908051906020019062000089929190620007ba565b508060019080519060200190620000a2929190620007ba565b5050508060068190555060086040518061010001604052806040518060400160405280600981526020017f436974792048616c6c00000000000000000000000000000000000000000000008152508152602001600073ffffffffffffffffffffffffffffffffffffffff168152602001600081526020016000815260200160008152602001600a8152602001600a8152602001600a8152509080600181540180825580915050600190039060005260206000209060080201600090919091909150600082015181600001908051906020019062000181929190620007ba565b5060208201518160010160006101000a81548173ffffffffffffffffffffffffffffffffffffffff021916908373ffffffffffffffffffffffffffffffffffffffff16021790555060408201518160020155606082015181600301556080820151816004015560a0820151816005015560c0820151816006015560e08201518160070155505060086040518061010001604052806040518060400160405280600781526020017f5374616469756d000000000000000000000000000000000000000000000000008152508152602001600073ffffffffffffffffffffffffffffffffffffffff16815260200160008152602001600a815260200160008152602001600a815260200160058152602001600381525090806001815401808255809150506001900390600052602060002090600802016000909190919091506000820151816000019080519060200190620002dc929190620007ba565b5060208201518160010160006101000a81548173ffffffffffffffffffffffffffffffffffffffff021916908373ffffffffffffffffffffffffffffffffffffffff16021790555060408201518160020155606082015181600301556080820151816004015560a0820151816005015560c0820151816006015560e08201518160070155505060086040518061010001604052806040518060400160405280600a81526020017f556e6976657273697479000000000000000000000000000000000000000000008152508152602001600073ffffffffffffffffffffffffffffffffffffffff168152602001600081526020017ffffffffffffffffffffffffffffffffffffffffffffffffffffffffffffffff6815260200160008152602001600a81526020016005815260200160038152509080600181540180825580915050600190039060005260206000209060080201600090919091909150600082015181600001908051906020019062000456929190620007ba565b5060208201518160010160006101000a81548173ffffffffffffffffffffffffffffffffffffffff021916908373ffffffffffffffffffffffffffffffffffffffff16021790555060408201518160020155606082015181600301556080820151816004015560a0820151816005015560c0820151816006015560e08201518160070155505060086040518061010001604052806040518060400160405280601081526020017f53686f7070696e6720506c617a612031000000000000000000000000000000008152508152602001600073ffffffffffffffffffffffffffffffffffffffff168152602001600a815260200160008152602001600081526020016005815260200160198152602001600581525090806001815401808255809150506001900390600052602060002090600802016000909190919091506000820151816000019080519060200190620005b1929190620007ba565b5060208201518160010160006101000a81548173ffffffffffffffffffffffffffffffffffffffff021916908373ffffffffffffffffffffffffffffffffffffffff16021790555060408201518160020155606082015181600301556080820151816004015560a0820151816005015560c0820151816006015560e08201518160070155505060086040518061010001604052806040518060400160405280601081526020017f53686f7070696e6720506c617a612032000000000000000000000000000000008152508152602001600073ffffffffffffffffffffffffffffffffffffffff1681526020017ffffffffffffffffffffffffffffffffffffffffffffffffffffffffffffffff68152602001600081526020016000815260200160058152602001601981526020016005815250908060018154018082558091505060019003906000526020600020906008020160009091909190915060008201518160000190805190602001906200072b929190620007ba565b5060208201518160010160006101000a81548173ffffffffffffffffffffffffffffffffffffffff021916908373ffffffffffffffffffffffffffffffffffffffff16021790555060408201518160020155606082015181600301556080820151816004015560a0820151816005015560c0820151816006015560e08201518160070155505050505062000b41565b828054620007c89062000b0b565b90600052602060002090601f016020900481019282620007ec576000855562000838565b82601f106200080757805160ff191683800117855562000838565b8280016001018555821562000838579182015b82811115620008375782518255916020019190600101906200081a565b5b5090506200084791906200084b565b5090565b5b80821115620008665760008160009055506001016200084c565b5090565b6000604051905090565b600080fd5b600080fd5b600080fd5b600080fd5b6000601f19601f8301169050919050565b7f4e487b7100000000000000000000000000000000000000000000000000000000600052604160045260246000fd5b620008d38262000888565b810181811067ffffffffffffffff82111715620008f557620008f462000899565b5b80604052505050565b60006200090a6200086a565b9050620009188282620008c8565b919050565b600067ffffffffffffffff8211156200093b576200093a62000899565b5b620009468262000888565b9050602081019050919050565b60005b838110156200097357808201518184015260208101905062000956565b8381111562000983576000848401525b50505050565b6000620009a06200099a846200091d565b620008fe565b905082815260208101848484011115620009bf57620009be62000883565b5b620009cc84828562000953565b509392505050565b600082601f830112620009ec57620009eb6200087e565b5b8151620009fe84826020860162000989565b91505092915050565b6000819050919050565b62000a1c8162000a07565b811462000a2857600080fd5b50565b60008151905062000a3c8162000a11565b92915050565b60008060006060848603121562000a5e5762000a5d62000874565b5b600084015167ffffffffffffffff81111562000a7f5762000a7e62000879565b5b62000a8d86828701620009d4565b935050602084015167ffffffffffffffff81111562000ab15762000ab062000879565b5b62000abf86828701620009d4565b925050604062000ad28682870162000a2b565b9150509250925092565b7f4e487b7100000000000000000000000000000000000000000000000000000000600052602260045260246000fd5b6000600282049050600182168062000b2457607f821691505b6020821081141562000b3b5762000b3a62000adc565b5b50919050565b61337f8062000b516000396000f3fe60806040526004361061011f5760003560e01c806370a08231116100a0578063b88d4fde11610064578063b88d4fde14610405578063c87b56dd1461042e578063d5abeb011461046b578063d9cf6a2614610496578063e985e9c5146104c15761011f565b806370a082311461031b57806395d89b41146103585780639dfd8b0214610383578063a0712d68146103c0578063a22cb465146103dc5761011f565b806318160ddd116100e757806318160ddd1461021d57806323b872dd1461024857806342842e0e146102715780634c96a0621461029a5780636352211e146102de5761011f565b806301ffc9a71461012457806306fdde0314610161578063081812fc1461018c578063095ea7b3146101c957806313faede6146101f2575b600080fd5b34801561013057600080fd5b5061014b60048036038101906101469190611fcd565b6104fe565b6040516101589190612015565b60405180910390f35b34801561016d57600080fd5b506101766105e0565b60405161018391906120c9565b60405180910390f35b34801561019857600080fd5b506101b360048036038101906101ae9190612121565b610672565b6040516101c0919061218f565b60405180910390f35b3480156101d557600080fd5b506101f060048036038101906101eb91906121d6565b6106b8565b005b3480156101fe57600080fd5b506102076107d0565b6040516102149190612225565b60405180910390f35b34801561022957600080fd5b506102326107d6565b60405161023f919061225c565b60405180910390f35b34801561025457600080fd5b5061026f600480360381019061026a9190612277565b6107e9565b005b34801561027d57600080fd5b5061029860048036038101906102939190612277565b6108b2565b005b3480156102a657600080fd5b506102c160048036038101906102bc9190612121565b6108d2565b6040516102d59897969594939291906122e3565b60405180910390f35b3480156102ea57600080fd5b5061030560048036038101906103009190612121565b6109d2565b604051610312919061218f565b60405180910390f35b34801561032757600080fd5b50610342600480360381019061033d9190612368565b610a84565b60405161034f9190612225565b60405180910390f35b34801561036457600080fd5b5061036d610b3c565b60405161037a91906120c9565b60405180910390f35b34801561038f57600080fd5b506103aa60048036038101906103a59190612121565b610bce565b6040516103b791906124ad565b60405180910390f35b6103da60048036038101906103d59190612121565b610d3b565b005b3480156103e857600080fd5b5061040360048036038101906103fe91906124fb565b610f5c565b005b34801561041157600080fd5b5061042c60048036038101906104279190612670565b610f72565b005b34801561043a57600080fd5b5061045560048036038101906104509190612121565b61103d565b60405161046291906120c9565b60405180910390f35b34801561047757600080fd5b506104806110a5565b60405161048d919061225c565b60405180910390f35b3480156104a257600080fd5b506104ab6110b8565b6040516104b89190612865565b60405180910390f35b3480156104cd57600080fd5b506104e860048036038101906104e39190612887565b61123c565b6040516104f59190612015565b60405180910390f35b60007f80ac58cd000000000000000000000000000000000000000000000000000000007bffffffffffffffffffffffffffffffffffffffffffffffffffffffff1916827bffffffffffffffffffffffffffffffffffffffffffffffffffffffff191614806105c957507f5b5e139f000000000000000000000000000000000000000000000000000000007bffffffffffffffffffffffffffffffffffffffffffffffffffffffff1916827bffffffffffffffffffffffffffffffffffffffffffffffffffffffff1916145b806105d957506105d8826112d0565b5b9050919050565b6060600080546105ef906128f6565b80601f016020809104026020016040519081016040528092919081815260200182805461061b906128f6565b80156106685780601f1061063d57610100808354040283529160200191610668565b820191906000526020600020905b81548152906001019060200180831161064b57829003601f168201915b5050505050905090565b600061067d8261133a565b6004600083815260200190815260200160002060009054906101000a900473ffffffffffffffffffffffffffffffffffffffff169050919050565b60006106c3826109d2565b90508073ffffffffffffffffffffffffffffffffffffffff168373ffffffffffffffffffffffffffffffffffffffff161415610734576040517f08c379a000000000000000000000000000000000000000000000000000000000815260040161072b9061299a565b60405180910390fd5b8073ffffffffffffffffffffffffffffffffffffffff16610753611385565b73ffffffffffffffffffffffffffffffffffffffff16148061078257506107818161077c611385565b61123c565b5b6107c1576040517f08c379a00000000000000000000000000000000000000000000000000000000081526004016107b890612a2c565b60405180910390fd5b6107cb838361138d565b505050565b60065481565b600760019054906101000a900460ff1681565b6107f33382611446565b610832576040517f08c379a000000000000000000000000000000000000000000000000000000000815260040161082990612abe565b60405180910390fd5b8160086001836108429190612b0d565b8154811061085357610852612b41565b5b906000526020600020906008020160010160006101000a81548173ffffffffffffffffffffffffffffffffffffffff021916908373ffffffffffffffffffffffffffffffffffffffff1602179055506108ad8383836114db565b505050565b6108cd83838360405180602001604052806000815250610f72565b505050565b600881815481106108e257600080fd5b9060005260206000209060080201600091509050806000018054610905906128f6565b80601f0160208091040260200160405190810160405280929190818152602001828054610931906128f6565b801561097e5780601f106109535761010080835404028352916020019161097e565b820191906000526020600020905b81548152906001019060200180831161096157829003601f168201915b5050505050908060010160009054906101000a900473ffffffffffffffffffffffffffffffffffffffff16908060020154908060030154908060040154908060050154908060060154908060070154905088565b6000806002600084815260200190815260200160002060009054906101000a900473ffffffffffffffffffffffffffffffffffffffff169050600073ffffffffffffffffffffffffffffffffffffffff168173ffffffffffffffffffffffffffffffffffffffff161415610a7b576040517f08c379a0000000000000000000000000000000000000000000000000000000008152600401610a7290612bbc565b60405180910390fd5b80915050919050565b60008073ffffffffffffffffffffffffffffffffffffffff168273ffffffffffffffffffffffffffffffffffffffff161415610af5576040517f08c379a0000000000000000000000000000000000000000000000000000000008152600401610aec90612c4e565b60405180910390fd5b600360008373ffffffffffffffffffffffffffffffffffffffff1673ffffffffffffffffffffffffffffffffffffffff168152602001908152602001600020549050919050565b606060018054610b4b906128f6565b80601f0160208091040260200160405190810160405280929190818152602001828054610b77906128f6565b8015610bc45780601f10610b9957610100808354040283529160200191610bc4565b820191906000526020600020905b815481529060010190602001808311610ba757829003601f168201915b5050505050905090565b610bd6611f06565b6008600183610be59190612b0d565b81548110610bf657610bf5612b41565b5b906000526020600020906008020160405180610100016040529081600082018054610c20906128f6565b80601f0160208091040260200160405190810160405280929190818152602001828054610c4c906128f6565b8015610c995780601f10610c6e57610100808354040283529160200191610c99565b820191906000526020600020905b815481529060010190602001808311610c7c57829003601f168201915b505050505081526020016001820160009054906101000a900473ffffffffffffffffffffffffffffffffffffffff1673ffffffffffffffffffffffffffffffffffffffff1673ffffffffffffffffffffffffffffffffffffffff16815260200160028201548152602001600382015481526020016004820154815260200160058201548152602001600682015481526020016007820154815250509050919050565b600760009054906101000a900460ff1660ff16600760019054906101000a900460ff1660ff161115610da2576040517f08c379a0000000000000000000000000000000000000000000000000000000008152600401610d9990612cba565b60405180910390fd5b600073ffffffffffffffffffffffffffffffffffffffff166008600183610dc99190612b0d565b81548110610dda57610dd9612b41565b5b906000526020600020906008020160010160009054906101000a900473ffffffffffffffffffffffffffffffffffffffff1673ffffffffffffffffffffffffffffffffffffffff1614610e62576040517f08c379a0000000000000000000000000000000000000000000000000000000008152600401610e5990612d26565b60405180910390fd5b600654341015610ea7576040517f08c379a0000000000000000000000000000000000000000000000000000000008152600401610e9e90612d92565b60405180910390fd5b336008600183610eb79190612b0d565b81548110610ec857610ec7612b41565b5b906000526020600020906008020160010160006101000a81548173ffffffffffffffffffffffffffffffffffffffff021916908373ffffffffffffffffffffffffffffffffffffffff1602179055506007600181819054906101000a900460ff1680929190610f3690612db2565b91906101000a81548160ff021916908360ff16021790555050610f593382611742565b50565b610f6e610f67611385565b8383611760565b5050565b610f7c3383611446565b610fbb576040517f08c379a0000000000000000000000000000000000000000000000000000000008152600401610fb290612abe565b60405180910390fd5b826008600184610fcb9190612b0d565b81548110610fdc57610fdb612b41565b5b906000526020600020906008020160010160006101000a81548173ffffffffffffffffffffffffffffffffffffffff021916908373ffffffffffffffffffffffffffffffffffffffff160217905550611037848484846118cd565b50505050565b60606110488261133a565b6000611052611929565b90506000815111611072576040518060200160405280600081525061109d565b8061107c84611940565b60405160200161108d929190612e18565b6040516020818303038152906040525b915050919050565b600760009054906101000a900460ff1681565b60606008805480602002602001604051908101604052809291908181526020016000905b82821015611233578382906000526020600020906008020160405180610100016040529081600082018054611110906128f6565b80601f016020809104026020016040519081016040528092919081815260200182805461113c906128f6565b80156111895780601f1061115e57610100808354040283529160200191611189565b820191906000526020600020905b81548152906001019060200180831161116c57829003601f168201915b505050505081526020016001820160009054906101000a900473ffffffffffffffffffffffffffffffffffffffff1673ffffffffffffffffffffffffffffffffffffffff1673ffffffffffffffffffffffffffffffffffffffff1681526020016002820154815260200160038201548152602001600482015481526020016005820154815260200160068201548152602001600782015481525050815260200190600101906110dc565b50505050905090565b6000600560008473ffffffffffffffffffffffffffffffffffffffff1673ffffffffffffffffffffffffffffffffffffffff16815260200190815260200160002060008373ffffffffffffffffffffffffffffffffffffffff1673ffffffffffffffffffffffffffffffffffffffff16815260200190815260200160002060009054906101000a900460ff16905092915050565b60007f01ffc9a7000000000000000000000000000000000000000000000000000000007bffffffffffffffffffffffffffffffffffffffffffffffffffffffff1916827bffffffffffffffffffffffffffffffffffffffffffffffffffffffff1916149050919050565b61134381611aa1565b611382576040517f08c379a000000000000000000000000000000000000000000000000000000000815260040161137990612bbc565b60405180910390fd5b50565b600033905090565b816004600083815260200190815260200160002060006101000a81548173ffffffffffffffffffffffffffffffffffffffff021916908373ffffffffffffffffffffffffffffffffffffffff160217905550808273ffffffffffffffffffffffffffffffffffffffff16611400836109d2565b73ffffffffffffffffffffffffffffffffffffffff167f8c5be1e5ebec7d5bd14f71427d1e84f3dd0314c0f7b2291e5b200ac8c7c3b92560405160405180910390a45050565b600080611452836109d2565b90508073ffffffffffffffffffffffffffffffffffffffff168473ffffffffffffffffffffffffffffffffffffffff1614806114945750611493818561123c565b5b806114d257508373ffffffffffffffffffffffffffffffffffffffff166114ba84610672565b73ffffffffffffffffffffffffffffffffffffffff16145b91505092915050565b8273ffffffffffffffffffffffffffffffffffffffff166114fb826109d2565b73ffffffffffffffffffffffffffffffffffffffff1614611551576040517f08c379a000000000000000000000000000000000000000000000000000000000815260040161154890612eae565b60405180910390fd5b600073ffffffffffffffffffffffffffffffffffffffff168273ffffffffffffffffffffffffffffffffffffffff1614156115c1576040517f08c379a00000000000000000000000000000000000000000000000000000000081526004016115b890612f40565b60405180910390fd5b6115cc838383611b0d565b6115d760008261138d565b6001600360008573ffffffffffffffffffffffffffffffffffffffff1673ffffffffffffffffffffffffffffffffffffffff16815260200190815260200160002060008282546116279190612b0d565b925050819055506001600360008473ffffffffffffffffffffffffffffffffffffffff1673ffffffffffffffffffffffffffffffffffffffff168152602001908152602001600020600082825461167e9190612f60565b92505081905550816002600083815260200190815260200160002060006101000a81548173ffffffffffffffffffffffffffffffffffffffff021916908373ffffffffffffffffffffffffffffffffffffffff160217905550808273ffffffffffffffffffffffffffffffffffffffff168473ffffffffffffffffffffffffffffffffffffffff167fddf252ad1be2c89b69c2b068fc378daa952ba7f163c4a11628f55a4df523b3ef60405160405180910390a461173d838383611b12565b505050565b61175c828260405180602001604052806000815250611b17565b5050565b8173ffffffffffffffffffffffffffffffffffffffff168373ffffffffffffffffffffffffffffffffffffffff1614156117cf576040517f08c379a00000000000000000000000000000000000000000000000000000000081526004016117c690613002565b60405180910390fd5b80600560008573ffffffffffffffffffffffffffffffffffffffff1673ffffffffffffffffffffffffffffffffffffffff16815260200190815260200160002060008473ffffffffffffffffffffffffffffffffffffffff1673ffffffffffffffffffffffffffffffffffffffff16815260200190815260200160002060006101000a81548160ff0219169083151502179055508173ffffffffffffffffffffffffffffffffffffffff168373ffffffffffffffffffffffffffffffffffffffff167f17307eab39ab6107e8899845ad3d59bd9653f200f220920489ca2b5937696c31836040516118c09190612015565b60405180910390a3505050565b6118d88484846114db565b6118e484848484611b72565b611923576040517f08c379a000000000000000000000000000000000000000000000000000000000815260040161191a90613094565b60405180910390fd5b50505050565b606060405180602001604052806000815250905090565b60606000821415611988576040518060400160405280600181526020017f30000000000000000000000000000000000000000000000000000000000000008152509050611a9c565b600082905060005b600082146119ba5780806119a3906130b4565b915050600a826119b3919061312c565b9150611990565b60008167ffffffffffffffff8111156119d6576119d5612545565b5b6040519080825280601f01601f191660200182016040528015611a085781602001600182028036833780820191505090505b5090505b60008514611a9557600182611a219190612b0d565b9150600a85611a30919061315d565b6030611a3c9190612f60565b60f81b818381518110611a5257611a51612b41565b5b60200101907effffffffffffffffffffffffffffffffffffffffffffffffffffffffffffff1916908160001a905350600a85611a8e919061312c565b9450611a0c565b8093505050505b919050565b60008073ffffffffffffffffffffffffffffffffffffffff166002600084815260200190815260200160002060009054906101000a900473ffffffffffffffffffffffffffffffffffffffff1673ffffffffffffffffffffffffffffffffffffffff1614159050919050565b505050565b505050565b611b218383611d09565b611b2e6000848484611b72565b611b6d576040517f08c379a0000000000000000000000000000000000000000000000000000000008152600401611b6490613094565b60405180910390fd5b505050565b6000611b938473ffffffffffffffffffffffffffffffffffffffff16611ee3565b15611cfc578373ffffffffffffffffffffffffffffffffffffffff1663150b7a02611bbc611385565b8786866040518563ffffffff1660e01b8152600401611bde94939291906131e3565b602060405180830381600087803b158015611bf857600080fd5b505af1925050508015611c2957506040513d601f19601f82011682018060405250810190611c269190613244565b60015b611cac573d8060008114611c59576040519150601f19603f3d011682016040523d82523d6000602084013e611c5e565b606091505b50600081511415611ca4576040517f08c379a0000000000000000000000000000000000000000000000000000000008152600401611c9b90613094565b60405180910390fd5b805181602001fd5b63150b7a0260e01b7bffffffffffffffffffffffffffffffffffffffffffffffffffffffff1916817bffffffffffffffffffffffffffffffffffffffffffffffffffffffff191614915050611d01565b600190505b949350505050565b600073ffffffffffffffffffffffffffffffffffffffff168273ffffffffffffffffffffffffffffffffffffffff161415611d79576040517f08c379a0000000000000000000000000000000000000000000000000000000008152600401611d70906132bd565b60405180910390fd5b611d8281611aa1565b15611dc2576040517f08c379a0000000000000000000000000000000000000000000000000000000008152600401611db990613329565b60405180910390fd5b611dce60008383611b0d565b6001600360008473ffffffffffffffffffffffffffffffffffffffff1673ffffffffffffffffffffffffffffffffffffffff1681526020019081526020016000206000828254611e1e9190612f60565b92505081905550816002600083815260200190815260200160002060006101000a81548173ffffffffffffffffffffffffffffffffffffffff021916908373ffffffffffffffffffffffffffffffffffffffff160217905550808273ffffffffffffffffffffffffffffffffffffffff16600073ffffffffffffffffffffffffffffffffffffffff167fddf252ad1be2c89b69c2b068fc378daa952ba7f163c4a11628f55a4df523b3ef60405160405180910390a4611edf60008383611b12565b5050565b6000808273ffffffffffffffffffffffffffffffffffffffff163b119050919050565b60405180610100016040528060608152602001600073ffffffffffffffffffffffffffffffffffffffff1681526020016000815260200160008152602001600081526020016000815260200160008152602001600081525090565b6000604051905090565b600080fd5b600080fd5b60007fffffffff0000000000000000000000000000000000000000000000000000000082169050919050565b611faa81611f75565b8114611fb557600080fd5b50565b600081359050611fc781611fa1565b92915050565b600060208284031215611fe357611fe2611f6b565b5b6000611ff184828501611fb8565b91505092915050565b60008115159050919050565b61200f81611ffa565b82525050565b600060208201905061202a6000830184612006565b92915050565b600081519050919050565b600082825260208201905092915050565b60005b8381101561206a57808201518184015260208101905061204f565b83811115612079576000848401525b50505050565b6000601f19601f8301169050919050565b600061209b82612030565b6120a5818561203b565b93506120b581856020860161204c565b6120be8161207f565b840191505092915050565b600060208201905081810360008301526120e38184612090565b905092915050565b6000819050919050565b6120fe816120eb565b811461210957600080fd5b50565b60008135905061211b816120f5565b92915050565b60006020828403121561213757612136611f6b565b5b60006121458482850161210c565b91505092915050565b600073ffffffffffffffffffffffffffffffffffffffff82169050919050565b60006121798261214e565b9050919050565b6121898161216e565b82525050565b60006020820190506121a46000830184612180565b92915050565b6121b38161216e565b81146121be57600080fd5b50565b6000813590506121d0816121aa565b92915050565b600080604083850312156121ed576121ec611f6b565b5b60006121fb858286016121c1565b925050602061220c8582860161210c565b9150509250929050565b61221f816120eb565b82525050565b600060208201905061223a6000830184612216565b92915050565b600060ff82169050919050565b61225681612240565b82525050565b6000602082019050612271600083018461224d565b92915050565b6000806000606084860312156122905761228f611f6b565b5b600061229e868287016121c1565b93505060206122af868287016121c1565b92505060406122c08682870161210c565b9150509250925092565b6000819050919050565b6122dd816122ca565b82525050565b60006101008201905081810360008301526122fe818b612090565b905061230d602083018a612180565b61231a60408301896122d4565b61232760608301886122d4565b61233460808301876122d4565b61234160a08301866122d4565b61234e60c08301856122d4565b61235b60e08301846122d4565b9998505050505050505050565b60006020828403121561237e5761237d611f6b565b5b600061238c848285016121c1565b91505092915050565b600082825260208201905092915050565b60006123b182612030565b6123bb8185612395565b93506123cb81856020860161204c565b6123d48161207f565b840191505092915050565b6123e88161216e565b82525050565b6123f7816122ca565b82525050565b600061010083016000830151848203600086015261241b82826123a6565b915050602083015161243060208601826123df565b50604083015161244360408601826123ee565b50606083015161245660608601826123ee565b50608083015161246960808601826123ee565b5060a083015161247c60a08601826123ee565b5060c083015161248f60c08601826123ee565b5060e08301516124a260e08601826123ee565b508091505092915050565b600060208201905081810360008301526124c781846123fd565b905092915050565b6124d881611ffa565b81146124e357600080fd5b50565b6000813590506124f5816124cf565b92915050565b6000806040838503121561251257612511611f6b565b5b6000612520858286016121c1565b9250506020612531858286016124e6565b9150509250929050565b600080fd5b600080fd5b7f4e487b7100000000000000000000000000000000000000000000000000000000600052604160045260246000fd5b61257d8261207f565b810181811067ffffffffffffffff8211171561259c5761259b612545565b5b80604052505050565b60006125af611f61565b90506125bb8282612574565b919050565b600067ffffffffffffffff8211156125db576125da612545565b5b6125e48261207f565b9050602081019050919050565b82818337600083830152505050565b600061261361260e846125c0565b6125a5565b90508281526020810184848401111561262f5761262e612540565b5b61263a8482856125f1565b509392505050565b600082601f8301126126575761265661253b565b5b8135612667848260208601612600565b91505092915050565b6000806000806080858703121561268a57612689611f6b565b5b6000612698878288016121c1565b94505060206126a9878288016121c1565b93505060406126ba8782880161210c565b925050606085013567ffffffffffffffff8111156126db576126da611f70565b5b6126e787828801612642565b91505092959194509250565b600081519050919050565b600082825260208201905092915050565b6000819050602082019050919050565b600061010083016000830151848203600086015261273d82826123a6565b915050602083015161275260208601826123df565b50604083015161276560408601826123ee565b50606083015161277860608601826123ee565b50608083015161278b60808601826123ee565b5060a083015161279e60a08601826123ee565b5060c08301516127b160c08601826123ee565b5060e08301516127c460e08601826123ee565b508091505092915050565b60006127db838361271f565b905092915050565b6000602082019050919050565b60006127fb826126f3565b61280581856126fe565b9350836020820285016128178561270f565b8060005b85811015612853578484038952815161283485826127cf565b945061283f836127e3565b925060208a0199505060018101905061281b565b50829750879550505050505092915050565b6000602082019050818103600083015261287f81846127f0565b905092915050565b6000806040838503121561289e5761289d611f6b565b5b60006128ac858286016121c1565b92505060206128bd858286016121c1565b9150509250929050565b7f4e487b7100000000000000000000000000000000000000000000000000000000600052602260045260246000fd5b6000600282049050600182168061290e57607f821691505b60208210811415612922576129216128c7565b5b50919050565b7f4552433732313a20617070726f76616c20746f2063757272656e74206f776e6560008201527f7200000000000000000000000000000000000000000000000000000000000000602082015250565b600061298460218361203b565b915061298f82612928565b604082019050919050565b600060208201905081810360008301526129b381612977565b9050919050565b7f4552433732313a20617070726f76652063616c6c6572206973206e6f7420746f60008201527f6b656e206f776e6572206e6f7220617070726f76656420666f7220616c6c0000602082015250565b6000612a16603e8361203b565b9150612a21826129ba565b604082019050919050565b60006020820190508181036000830152612a4581612a09565b9050919050565b7f596f7520617265206e6f7420617070726f766564206f7220746865206f776e6560008201527f7200000000000000000000000000000000000000000000000000000000000000602082015250565b6000612aa860218361203b565b9150612ab382612a4c565b604082019050919050565b60006020820190508181036000830152612ad781612a9b565b9050919050565b7f4e487b7100000000000000000000000000000000000000000000000000000000600052601160045260246000fd5b6000612b18826120eb565b9150612b23836120eb565b925082821015612b3657612b35612ade565b5b828203905092915050565b7f4e487b7100000000000000000000000000000000000000000000000000000000600052603260045260246000fd5b7f4552433732313a20696e76616c696420746f6b656e2049440000000000000000600082015250565b6000612ba660188361203b565b9150612bb182612b70565b602082019050919050565b60006020820190508181036000830152612bd581612b99565b9050919050565b7f4552433732313a2061646472657373207a65726f206973206e6f74206120766160008201527f6c6964206f776e65720000000000000000000000000000000000000000000000602082015250565b6000612c3860298361203b565b9150612c4382612bdc565b604082019050919050565b60006020820190508181036000830152612c6781612c2b565b9050919050565b7f4e6f206d6f7265206c616e6420746f2062757900000000000000000000000000600082015250565b6000612ca460138361203b565b9150612caf82612c6e565b602082019050919050565b60006020820190508181036000830152612cd381612c97565b9050919050565b7f4c616e6420697320616c72656164792070757263686173656400000000000000600082015250565b6000612d1060198361203b565b9150612d1b82612cda565b602082019050919050565b60006020820190508181036000830152612d3f81612d03565b9050919050565b7f4e6f7420656e6f7567682065746865722073656e740000000000000000000000600082015250565b6000612d7c60158361203b565b9150612d8782612d46565b602082019050919050565b60006020820190508181036000830152612dab81612d6f565b9050919050565b6000612dbd82612240565b915060ff821415612dd157612dd0612ade565b5b600182019050919050565b600081905092915050565b6000612df282612030565b612dfc8185612ddc565b9350612e0c81856020860161204c565b80840191505092915050565b6000612e248285612de7565b9150612e308284612de7565b91508190509392505050565b7f4552433732313a207472616e736665722066726f6d20696e636f72726563742060008201527f6f776e6572000000000000000000000000000000000000000000000000000000602082015250565b6000612e9860258361203b565b9150612ea382612e3c565b604082019050919050565b60006020820190508181036000830152612ec781612e8b565b9050919050565b7f4552433732313a207472616e7366657220746f20746865207a65726f2061646460008201527f7265737300000000000000000000000000000000000000000000000000000000602082015250565b6000612f2a60248361203b565b9150612f3582612ece565b604082019050919050565b60006020820190508181036000830152612f5981612f1d565b9050919050565b6000612f6b826120eb565b9150612f76836120eb565b9250827fffffffffffffffffffffffffffffffffffffffffffffffffffffffffffffffff03821115612fab57612faa612ade565b5b828201905092915050565b7f4552433732313a20617070726f766520746f2063616c6c657200000000000000600082015250565b6000612fec60198361203b565b9150612ff782612fb6565b602082019050919050565b6000602082019050818103600083015261301b81612fdf565b9050919050565b7f4552433732313a207472616e7366657220746f206e6f6e20455243373231526560008201527f63656976657220696d706c656d656e7465720000000000000000000000000000602082015250565b600061307e60328361203b565b915061308982613022565b604082019050919050565b600060208201905081810360008301526130ad81613071565b9050919050565b60006130bf826120eb565b91507fffffffffffffffffffffffffffffffffffffffffffffffffffffffffffffffff8214156130f2576130f1612ade565b5b600182019050919050565b7f4e487b7100000000000000000000000000000000000000000000000000000000600052601260045260246000fd5b6000613137826120eb565b9150613142836120eb565b925082613152576131516130fd565b5b828204905092915050565b6000613168826120eb565b9150613173836120eb565b925082613183576131826130fd565b5b828206905092915050565b600081519050919050565b600082825260208201905092915050565b60006131b58261318e565b6131bf8185613199565b93506131cf81856020860161204c565b6131d88161207f565b840191505092915050565b60006080820190506131f86000830187612180565b6132056020830186612180565b6132126040830185612216565b818103606083015261322481846131aa565b905095945050505050565b60008151905061323e81611fa1565b92915050565b60006020828403121561325a57613259611f6b565b5b60006132688482850161322f565b91505092915050565b7f4552433732313a206d696e7420746f20746865207a65726f2061646472657373600082015250565b60006132a760208361203b565b91506132b282613271565b602082019050919050565b600060208201905081810360008301526132d68161329a565b9050919050565b7f4552433732313a20746f6b656e20616c7265616479206d696e74656400000000600082015250565b6000613313601c8361203b565b915061331e826132dd565b602082019050919050565b6000602082019050818103600083015261334281613306565b905091905056fea2646970667358221220b6246ddf4635cb929a98af4612ac728eea5453afb078f851c79b6d7640121a8c64736f6c63430008090033",
  "linkReferences": {},
  "deployedLinkReferences": {}
}